{
  "contractName": "ERC721",
  "abi": [
    {
      "inputs": [
        {
          "internalType": "string",
          "name": "name_",
          "type": "string"
        },
        {
          "internalType": "string",
          "name": "symbol_",
          "type": "string"
        }
      ],
      "stateMutability": "nonpayable",
      "type": "constructor"
    },
    {
      "anonymous": false,
      "inputs": [
        {
          "indexed": true,
          "internalType": "address",
          "name": "owner",
          "type": "address"
        },
        {
          "indexed": true,
          "internalType": "address",
          "name": "approved",
          "type": "address"
        },
        {
          "indexed": true,
          "internalType": "string",
          "name": "tokenId",
          "type": "string"
        }
      ],
      "name": "Approval",
      "type": "event"
    },
    {
      "anonymous": false,
      "inputs": [
        {
          "indexed": true,
          "internalType": "address",
          "name": "owner",
          "type": "address"
        },
        {
          "indexed": true,
          "internalType": "address",
          "name": "operator",
          "type": "address"
        },
        {
          "indexed": false,
          "internalType": "bool",
          "name": "approved",
          "type": "bool"
        }
      ],
      "name": "ApprovalForAll",
      "type": "event"
    },
    {
      "anonymous": false,
      "inputs": [
        {
          "indexed": true,
          "internalType": "address",
          "name": "from",
          "type": "address"
        },
        {
          "indexed": true,
          "internalType": "address",
          "name": "to",
          "type": "address"
        },
        {
          "indexed": true,
          "internalType": "string",
          "name": "tokenId",
          "type": "string"
        }
      ],
      "name": "Transfer",
      "type": "event"
    },
    {
      "inputs": [
        {
          "internalType": "uint256",
          "name": "",
          "type": "uint256"
        }
      ],
      "name": "Tokens",
      "outputs": [
        {
          "internalType": "string",
          "name": "",
          "type": "string"
        }
      ],
      "stateMutability": "view",
      "type": "function",
      "constant": true
    },
    {
      "inputs": [
        {
          "internalType": "address",
          "name": "owner",
          "type": "address"
        }
      ],
      "name": "balanceOf",
      "outputs": [
        {
          "internalType": "uint256",
          "name": "",
          "type": "uint256"
        }
      ],
      "stateMutability": "view",
      "type": "function",
      "constant": true
    },
    {
      "inputs": [
        {
          "internalType": "string",
          "name": "tokenId",
          "type": "string"
        }
      ],
      "name": "ownerOf",
      "outputs": [
        {
          "internalType": "address",
          "name": "",
          "type": "address"
        }
      ],
      "stateMutability": "view",
      "type": "function",
      "constant": true
    },
    {
      "inputs": [],
      "name": "name",
      "outputs": [
        {
          "internalType": "string",
          "name": "",
          "type": "string"
        }
      ],
      "stateMutability": "view",
      "type": "function",
      "constant": true
    },
    {
      "inputs": [],
      "name": "symbol",
      "outputs": [
        {
          "internalType": "string",
          "name": "",
          "type": "string"
        }
      ],
      "stateMutability": "view",
      "type": "function",
      "constant": true
    },
    {
      "inputs": [
        {
          "internalType": "string",
          "name": "tokenId",
          "type": "string"
        }
      ],
      "name": "tokenURI",
      "outputs": [
        {
          "internalType": "string",
          "name": "",
          "type": "string"
        }
      ],
      "stateMutability": "view",
      "type": "function",
      "constant": true
    },
    {
      "inputs": [
        {
          "internalType": "address",
          "name": "to",
          "type": "address"
        },
        {
          "internalType": "string",
          "name": "tokenId",
          "type": "string"
        }
      ],
      "name": "approve",
      "outputs": [],
      "stateMutability": "nonpayable",
      "type": "function"
    },
    {
      "inputs": [
        {
          "internalType": "string",
          "name": "tokenId",
          "type": "string"
        }
      ],
      "name": "getApproved",
      "outputs": [
        {
          "internalType": "address",
          "name": "",
          "type": "address"
        }
      ],
      "stateMutability": "view",
      "type": "function",
      "constant": true
    },
    {
      "inputs": [
        {
          "internalType": "address",
          "name": "operator",
          "type": "address"
        },
        {
          "internalType": "bool",
          "name": "approved",
          "type": "bool"
        }
      ],
      "name": "setApprovalForAll",
      "outputs": [],
      "stateMutability": "nonpayable",
      "type": "function"
    },
    {
      "inputs": [
        {
          "internalType": "address",
          "name": "owner",
          "type": "address"
        },
        {
          "internalType": "address",
          "name": "operator",
          "type": "address"
        }
      ],
      "name": "isApprovedForAll",
      "outputs": [
        {
          "internalType": "bool",
          "name": "",
          "type": "bool"
        }
      ],
      "stateMutability": "view",
      "type": "function",
      "constant": true
    },
    {
      "inputs": [
        {
          "internalType": "address",
          "name": "from",
          "type": "address"
        },
        {
          "internalType": "address",
          "name": "to",
          "type": "address"
        },
        {
          "internalType": "string",
          "name": "tokenId",
          "type": "string"
        }
      ],
      "name": "transferFrom",
      "outputs": [],
      "stateMutability": "nonpayable",
      "type": "function"
    },
    {
      "inputs": [
        {
          "internalType": "address",
          "name": "from",
          "type": "address"
        },
        {
          "internalType": "address",
          "name": "to",
          "type": "address"
        },
        {
          "internalType": "string",
          "name": "tokenId",
          "type": "string"
        }
      ],
      "name": "safeTransferFrom",
      "outputs": [],
      "stateMutability": "nonpayable",
      "type": "function"
    },
    {
      "inputs": [
        {
          "internalType": "address",
          "name": "to",
          "type": "address"
        },
        {
          "internalType": "string",
          "name": "tokenId",
          "type": "string"
        }
      ],
      "name": "mint",
      "outputs": [],
      "stateMutability": "nonpayable",
      "type": "function"
    },
    {
      "inputs": [],
      "name": "getAllTokens",
      "outputs": [
        {
          "internalType": "string[]",
          "name": "tokens",
          "type": "string[]"
        }
      ],
      "stateMutability": "view",
      "type": "function",
      "constant": true
    },
    {
      "inputs": [],
      "name": "getLengthArrayTokens",
      "outputs": [
        {
          "internalType": "uint256",
          "name": "length",
          "type": "uint256"
        }
      ],
      "stateMutability": "view",
      "type": "function",
      "constant": true
    }
  ],
  "bytecode": "0x60806040523480156200001157600080fd5b50604051620018c2380380620018c28339810160408190526200003491620001b9565b81516200004990600090602085019062000068565b5080516200005f90600190602084019062000068565b50505062000273565b828054620000769062000220565b90600052602060002090601f0160209004810192826200009a5760008555620000e5565b82601f10620000b557805160ff1916838001178555620000e5565b82800160010185558215620000e5579182015b82811115620000e5578251825591602001919060010190620000c8565b50620000f3929150620000f7565b5090565b5b80821115620000f35760008155600101620000f8565b600082601f8301126200011f578081fd5b81516001600160401b03808211156200013c576200013c6200025d565b6040516020601f8401601f19168201810183811183821017156200016457620001646200025d565b60405283825285840181018710156200017b578485fd5b8492505b838310156200019e57858301810151828401820152918201916200017f565b83831115620001af57848185840101525b5095945050505050565b60008060408385031215620001cc578182fd5b82516001600160401b0380821115620001e3578384fd5b620001f1868387016200010e565b9350602085015191508082111562000207578283fd5b5062000216858286016200010e565b9150509250929050565b6002810460018216806200023557607f821691505b602082108114156200025757634e487b7160e01b600052602260045260246000fd5b50919050565b634e487b7160e01b600052604160045260246000fd5b61163f80620002836000396000f3fe608060405234801561001057600080fd5b50600436106100c55760003560e01c806306fdde03146100ca57806329cd00f7146100e85780632a5c792a146100fd5780633ebfc934146101125780634cf12d261461012557806352adffd71461013857806370a082311461014b578063920ffa261461016b578063953c81331461018b57806395d89b411461019e578063a22cb465146101a6578063b92a66c7146101b9578063cd2d6b94146101cc578063d0def521146101d4578063e985e9c5146101e7575b600080fd5b6100d2610207565b6040516100df9190611126565b60405180910390f35b6100fb6100f6366004610f3e565b610299565b005b61010561033a565b6040516100df91906110bb565b6100fb610120366004610ea9565b610413565b6100d2610133366004610fb1565b61044b565b6100fb610146366004610ea9565b6104c8565b61015e610159366004610e5d565b6104fa565b6040516100df919061151a565b61017e610179366004610fb1565b61053e565b6040516100df9190611072565b6100d2610199366004610fe3565b61058f565b6100d261063b565b6100fb6101b4366004610f04565b61064a565b61017e6101c7366004610fb1565b610718565b61015e61076f565b6100fb6101e2366004610f3e565b610775565b6101fa6101f5366004610e77565b6108be565b6040516100df919061111b565b60606000805461021690611582565b80601f016020809104026020016040519081016040528092919081815260200182805461024290611582565b801561028f5780601f106102645761010080835404028352916020019161028f565b820191906000526020600020905b81548152906001019060200180831161027257829003601f168201915b5050505050905090565b60006102a48261053e565b9050806001600160a01b0316836001600160a01b031614156102e15760405162461bcd60e51b81526004016102d890611488565b60405180910390fd5b806001600160a01b03166102f36108ec565b6001600160a01b0316148061030f575061030f816101f56108ec565b61032b5760405162461bcd60e51b81526004016102d890611284565b61033583836108f0565b505050565b60606006805480602002602001604051908101604052809291908181526020016000905b8282101561040a57838290600052602060002001805461037d90611582565b80601f01602080910402602001604051908101604052809291908181526020018280546103a990611582565b80156103f65780601f106103cb576101008083540402835291602001916103f6565b820191906000526020600020905b8154815290600101906020018083116103d957829003601f168201915b50505050508152602001906001019061035e565b50505050905090565b61042461041e6108ec565b82610990565b6104405760405162461bcd60e51b81526004016102d8906114c9565b610335838383610a15565b606061045682610b6f565b6104725760405162461bcd60e51b81526004016102d890611439565b600061047c610bad565b9050600081511161049c57604051806020016040528060008152506104bf565b80836040516020016104af929190611043565b6040516020818303038152906040525b9150505b919050565b6104d361041e6108ec565b6104ef5760405162461bcd60e51b81526004016102d8906114c9565b610335838383610bdc565b60006001600160a01b0382166105225760405162461bcd60e51b81526004016102d8906112dc565b506001600160a01b031660009081526003602052604090205490565b6000806002836040516105519190611027565b908152604051908190036020019020546001600160a01b03169050806105895760405162461bcd60e51b81526004016102d890611326565b92915050565b6006818154811061059f57600080fd5b9060005260206000200160009150905080546105ba90611582565b80601f01602080910402602001604051908101604052809291908181526020018280546105e690611582565b80156106335780601f1061060857610100808354040283529160200191610633565b820191906000526020600020905b81548152906001019060200180831161061657829003601f168201915b505050505081565b60606001805461021690611582565b6106526108ec565b6001600160a01b0316826001600160a01b031614156106835760405162461bcd60e51b81526004016102d890611205565b80600560006106906108ec565b6001600160a01b03908116825260208083019390935260409182016000908120918716808252919093529120805460ff1916921515929092179091556106d46108ec565b6001600160a01b03167f17307eab39ab6107e8899845ad3d59bd9653f200f220920489ca2b5937696c318360405161070c919061111b565b60405180910390a35050565b600061072382610b6f565b61073f5760405162461bcd60e51b81526004016102d8906113a4565b60048260405161074f9190611027565b908152604051908190036020019020546001600160a01b03169050919050565b60065490565b6001600160a01b03821661079b5760405162461bcd60e51b81526004016102d89061136f565b6107a481610b6f565b156107c15760405162461bcd60e51b81526004016102d89061118b565b6107cd60008383610335565b6001600160a01b03821660009081526003602052604081208054600192906107f6908490611523565b925050819055508160028260405161080e9190611027565b9081526040516020918190038201902080546001600160a01b0319166001600160a01b039390931692909217909155600680546001810182556000919091528251610880927ff652222313e28459528d920b65115c16c04f3efc82aaedc97be59f3f377c0d3f90920191840190610d2d565b508060405161088f9190611027565b604051908190038120906001600160a01b038416906000906000805160206115ea833981519152908290a45050565b6001600160a01b03918216600090815260056020908152604080832093909416825291909152205460ff1690565b3390565b816004826040516109019190611027565b90815260405190819003602001812080546001600160a01b03939093166001600160a01b03199093169290921790915561093c908290611027565b6040518091039020826001600160a01b03166109578361053e565b6001600160a01b03167f1f84ad2a44b444ff59c84b14c29a0515df82fffbd26a5a923e601d8302872c9160405160405180910390a45050565b600061099b82610b6f565b6109b75760405162461bcd60e51b81526004016102d890611238565b60006109c28361053e565b9050806001600160a01b0316846001600160a01b031614806109fd5750836001600160a01b03166109f284610718565b6001600160a01b0316145b80610a0d5750610a0d81856108be565b949350505050565b826001600160a01b0316610a288261053e565b6001600160a01b031614610a4e5760405162461bcd60e51b81526004016102d8906113f0565b6001600160a01b038216610a745760405162461bcd60e51b81526004016102d8906111c1565b610a7f838383610335565b610a8a6000826108f0565b6001600160a01b0383166000908152600360205260408120805460019290610ab390849061153b565b90915550506001600160a01b0382166000908152600360205260408120805460019290610ae1908490611523565b9250508190555081600282604051610af99190611027565b90815260405190819003602001812080546001600160a01b03939093166001600160a01b031990931692909217909155610b34908290611027565b6040518091039020826001600160a01b0316846001600160a01b03166000805160206115ea83398151915260405160405180910390a4505050565b6000806001600160a01b0316600283604051610b8b9190611027565b908152604051908190036020019020546001600160a01b031614159050919050565b60408051808201909152601581527468747470733a2f2f697066732e696f2f697066732f60581b602082015290565b610be7838383610a15565b610bf2838383610c0e565b6103355760405162461bcd60e51b81526004016102d890611139565b6000610c22836001600160a01b0316610d27565b15610d1c57826001600160a01b031663436369d7610c3e6108ec565b86856040518463ffffffff1660e01b8152600401610c5e93929190611086565b602060405180830381600087803b158015610c7857600080fd5b505af1925050508015610ca8575060408051601f3d908101601f19168201909252610ca591810190610f89565b60015b610d02573d808015610cd6576040519150601f19603f3d011682016040523d82523d6000602084013e610cdb565b606091505b508051610cfa5760405162461bcd60e51b81526004016102d890611139565b805181602001fd5b6001600160e01b03191663436369d760e01b149050610d20565b5060015b9392505050565b3b151590565b828054610d3990611582565b90600052602060002090601f016020900481019282610d5b5760008555610da1565b82601f10610d7457805160ff1916838001178555610da1565b82800160010185558215610da1579182015b82811115610da1578251825591602001919060010190610d86565b50610dad929150610db1565b5090565b5b80821115610dad5760008155600101610db2565b80356001600160a01b03811681146104c357600080fd5b600082601f830112610ded578081fd5b81356001600160401b0380821115610e0757610e076115d3565b604051601f8301601f191681016020018281118282101715610e2b57610e2b6115d3565b604052828152848301602001861015610e42578384fd5b82602086016020830137918201602001929092529392505050565b600060208284031215610e6e578081fd5b610d2082610dc6565b60008060408385031215610e89578081fd5b610e9283610dc6565b9150610ea060208401610dc6565b90509250929050565b600080600060608486031215610ebd578081fd5b610ec684610dc6565b9250610ed460208501610dc6565b915060408401356001600160401b03811115610eee578182fd5b610efa86828701610ddd565b9150509250925092565b60008060408385031215610f16578182fd5b610f1f83610dc6565b915060208301358015158114610f33578182fd5b809150509250929050565b60008060408385031215610f50578182fd5b610f5983610dc6565b915060208301356001600160401b03811115610f73578182fd5b610f7f85828601610ddd565b9150509250929050565b600060208284031215610f9a578081fd5b81516001600160e01b031981168114610d20578182fd5b600060208284031215610fc2578081fd5b81356001600160401b03811115610fd7578182fd5b610a0d84828501610ddd565b600060208284031215610ff4578081fd5b5035919050565b60008151808452611013816020860160208601611552565b601f01601f19169290920160200192915050565b60008251611039818460208701611552565b9190910192915050565b60008351611055818460208801611552565b835190830190611069818360208801611552565b01949350505050565b6001600160a01b0391909116815260200190565b6001600160a01b038481168252831660208201526060604082018190526000906110b290830184610ffb565b95945050505050565b6000602080830181845280855180835260408601915060408482028701019250838701855b8281101561110e57603f198886030184526110fc858351610ffb565b945092850192908501906001016110e0565b5092979650505050505050565b901515815260200190565b600060208252610d206020830184610ffb565b60208082526032908201527f4552433732313a207472616e7366657220746f206e6f6e20455243373231526560408201527131b2b4bb32b91034b6b83632b6b2b73a32b960711b606082015260800190565b6020808252601c908201527b115490cdcc8c4e881d1bdad95b88185b1c9958591e481b5a5b9d195960221b604082015260600190565b60208082526024908201527f4552433732313a207472616e7366657220746f20746865207a65726f206164646040820152637265737360e01b606082015260800190565b60208082526019908201527822a9219b99189d1030b8383937bb32903a379031b0b63632b960391b604082015260600190565b6020808252602c908201527f4552433732313a206f70657261746f7220717565727920666f72206e6f6e657860408201526b34b9ba32b73a103a37b5b2b760a11b606082015260800190565b60208082526038908201527f4552433732313a20617070726f76652063616c6c6572206973206e6f74206f776040820152771b995c881b9bdc88185c1c1c9bdd995908199bdc88185b1b60421b606082015260800190565b6020808252602a908201527f4552433732313a2062616c616e636520717565727920666f7220746865207a65604082015269726f206164647265737360b01b606082015260800190565b60208082526029908201527f4552433732313a206f776e657220717565727920666f72206e6f6e657869737460408201526832b73a103a37b5b2b760b91b606082015260800190565b6020808252818101527f4552433732313a206d696e7420746f20746865207a65726f2061646472657373604082015260600190565b6020808252602c908201527f4552433732313a20617070726f76656420717565727920666f72206e6f6e657860408201526b34b9ba32b73a103a37b5b2b760a11b606082015260800190565b60208082526029908201527f4552433732313a207472616e73666572206f6620746f6b656e2074686174206960408201526839903737ba1037bbb760b91b606082015260800190565b6020808252602f908201527f4552433732314d657461646174613a2055524920717565727920666f72206e6f60408201526e3732bc34b9ba32b73a103a37b5b2b760891b606082015260800190565b60208082526021908201527f4552433732313a20617070726f76616c20746f2063757272656e74206f776e656040820152603960f91b606082015260800190565b60208082526031908201527f4552433732313a207472616e736665722063616c6c6572206973206e6f74206f6040820152701ddb995c881b9bdc88185c1c1c9bdd9959607a1b606082015260800190565b90815260200190565b60008219821115611536576115366115bd565b500190565b60008282101561154d5761154d6115bd565b500390565b60005b8381101561156d578181015183820152602001611555565b8381111561157c576000848401525b50505050565b60028104600182168061159657607f821691505b602082108114156115b757634e487b7160e01b600052602260045260246000fd5b50919050565b634e487b7160e01b600052601160045260246000fd5b634e487b7160e01b600052604160045260246000fdfe55e10366a5f552746106978b694d7ef3bbddec06bd5f9b9d15ad46f475c653efa26469706673582212201f8eb57e1950ec978f73d847ae908618c587fa5be273b14e0eeb7b67e1f3bb7a64736f6c63430008000033",
  "immutableReferences": {},
  "source": "pragma solidity ^0.8.0;\n\nimport \"./IERC721.sol\";\nimport \"./IERC721Receiver.sol\";\nimport \"./Context.sol\";\nimport \"./Address.sol\";\n\n/**\n * @dev Implementation of https://eips.ethereum.org/EIPS/eip-721[ERC721] Non-Fungible Token Standard, including\n * the Metadata extension, but not including the Enumerable extension, which is available separately as\n * {ERC721Enumerable}.\n */\ncontract ERC721 is Context, IERC721 {\n    using Address for address;\n\n    // Token name\n    string private _name;\n\n    // Token symbol\n    string private _symbol;\n\n    // Mapping from token ID to owner address\n    mapping(string => address) private _owners;\n\n    // Mapping owner address to token count\n    mapping(address => uint256) private _balances;\n\n    // Mapping from token ID to approved address\n    mapping(string => address) private _tokenApprovals;\n\n    // Mapping from owner to operator approvals\n    mapping(address => mapping(address => bool)) private _operatorApprovals;\n    string[] public Tokens;\n\n    /**\n     * @dev Initializes the contract by setting a `name` and a `symbol` to the token collection.\n     */\n    constructor(string memory name_, string memory symbol_) {\n        _name = name_;\n        _symbol = symbol_;\n    }\n\n    /**\n     * @dev See {IERC721-balanceOf}.\n     */\n    function balanceOf(address owner)\n        public\n        view\n        virtual\n        override\n        returns (uint256)\n    {\n        require(\n            owner != address(0),\n            \"ERC721: balance query for the zero address\"\n        );\n        return _balances[owner];\n    }\n\n    /**\n     * @dev See {IERC721-ownerOf}.\n     */\n    function ownerOf(string memory tokenId)\n        public\n        view\n        virtual\n        override\n        returns (address)\n    {\n        address owner = _owners[tokenId];\n        require(\n            owner != address(0),\n            \"ERC721: owner query for nonexistent token\"\n        );\n        return owner;\n    }\n\n    /**\n     * @dev See {IERC721Metadata-name}.\n     */\n    function name() public view returns (string memory) {\n        return _name;\n    }\n\n    /**\n     * @dev See {IERC721Metadata-symbol}.\n     */\n    function symbol() public view returns (string memory) {\n        return _symbol;\n    }\n\n    /**\n     * @dev See {IERC721Metadata-tokenURI}.\n     */\n    function tokenURI(string memory tokenId)\n        public\n        view\n        returns (string memory)\n    {\n        require(\n            _exists(tokenId),\n            \"ERC721Metadata: URI query for nonexistent token\"\n        );\n\n        string memory baseURI = _baseURI();\n        return\n            bytes(baseURI).length > 0\n                ? string(abi.encodePacked(baseURI, tokenId))\n                : \"\";\n    }\n\n    /**\n     * @dev Base URI for computing {tokenURI}. If set, the resulting URI for each\n     * token will be the concatenation of the `baseURI` and the `tokenId`. Empty\n     * by default, can be overriden in child contracts.\n     */\n    function _baseURI() internal view virtual returns (string memory) {\n        return \"https://ipfs.io/ipfs/\";\n    }\n\n    /**\n     * @dev See {IERC721-approve}.\n     */\n    function approve(address to, string memory tokenId)\n        public\n        virtual\n        override\n    {\n        address owner = ERC721.ownerOf(tokenId);\n        require(to != owner, \"ERC721: approval to current owner\");\n\n        require(\n            _msgSender() == owner || isApprovedForAll(owner, _msgSender()),\n            \"ERC721: approve caller is not owner nor approved for all\"\n        );\n\n        _approve(to, tokenId);\n    }\n\n    /**\n     * @dev See {IERC721-getApproved}.\n     */\n    function getApproved(string memory tokenId)\n        public\n        view\n        virtual\n        override\n        returns (address)\n    {\n        require(\n            _exists(tokenId),\n            \"ERC721: approved query for nonexistent token\"\n        );\n\n        return _tokenApprovals[tokenId];\n    }\n\n    /**\n     * @dev See {IERC721-setApprovalForAll}.\n     */\n    function setApprovalForAll(address operator, bool approved)\n        public\n        virtual\n        override\n    {\n        require(operator != _msgSender(), \"ERC721: approve to caller\");\n\n        _operatorApprovals[_msgSender()][operator] = approved;\n        emit ApprovalForAll(_msgSender(), operator, approved);\n    }\n\n    /**\n     * @dev See {IERC721-isApprovedForAll}.\n     */\n    function isApprovedForAll(address owner, address operator)\n        public\n        view\n        virtual\n        override\n        returns (bool)\n    {\n        return _operatorApprovals[owner][operator];\n    }\n\n    /**\n     * @dev See {IERC721-transferFrom}.\n     */\n    function transferFrom(\n        address from,\n        address to,\n        string memory tokenId\n    ) public virtual override {\n        //solhint-disable-next-line max-line-length\n        require(\n            _isApprovedOrOwner(_msgSender(), tokenId),\n            \"ERC721: transfer caller is not owner nor approved\"\n        );\n\n        _transfer(from, to, tokenId);\n    }\n\n    /**\n     * @dev See {IERC721-safeTransferFrom}.\n     */\n    function safeTransferFrom(\n        address from,\n        address to,\n        string memory tokenId\n    ) public virtual override {\n        require(\n            _isApprovedOrOwner(_msgSender(), tokenId),\n            \"ERC721: transfer caller is not owner nor approved\"\n        );\n        _safeTransfer(from, to, tokenId);\n    }\n\n    /**\n     * @dev Safely transfers `tokenId` token from `from` to `to`, checking first that contract recipients\n     * are aware of the ERC721 protocol to prevent tokens from being forever locked.\n     *\n     * `_data` is additional data, it has no specified format and it is sent in call to `to`.\n     *\n     * This internal function is equivalent to {safeTransferFrom}, and can be used to e.g.\n     * implement alternative mechanisms to perform token transfer, such as signature-based.\n     *\n     * Requirements:\n     *\n     * - `from` cannot be the zero address.\n     * - `to` cannot be the zero address.\n     * - `tokenId` token must exist and be owned by `from`.\n     * - If `to` refers to a smart contract, it must implement {IERC721Receiver-onERC721Received}, which is called upon a safe transfer.\n     *\n     * Emits a {Transfer} event.\n     */\n    function _safeTransfer(\n        address from,\n        address to,\n        string memory tokenId\n    ) internal virtual {\n        _transfer(from, to, tokenId);\n        require(\n            _checkOnERC721Received(from, to, tokenId),\n            \"ERC721: transfer to non ERC721Receiver implementer\"\n        );\n    }\n\n    /**\n     * @dev Returns whether `tokenId` exists.\n     *\n     * Tokens can be managed by their owner or approved accounts via {approve} or {setApprovalForAll}.\n     *\n     * Tokens start existing when they are minted (`_mint`),\n     * and stop existing when they are burned (`_burn`).\n     */\n    function _exists(string memory tokenId)\n        internal\n        view\n        virtual\n        returns (bool)\n    {\n        return _owners[tokenId] != address(0);\n    }\n\n    /**\n     * @dev Returns whether `spender` is allowed to manage `tokenId`.\n     *\n     * Requirements:\n     *\n     * - `tokenId` must exist.\n     */\n    function _isApprovedOrOwner(address spender, string memory tokenId)\n        internal\n        view\n        virtual\n        returns (bool)\n    {\n        require(\n            _exists(tokenId),\n            \"ERC721: operator query for nonexistent token\"\n        );\n        address owner = ERC721.ownerOf(tokenId);\n        return (spender == owner ||\n            getApproved(tokenId) == spender ||\n            isApprovedForAll(owner, spender));\n    }\n\n    /**\n     * @dev Safely mints `tokenId` and transfers it to `to`.\n     *\n     * Requirements:\n     *\n     * - `tokenId` must not exist.\n     * - If `to` refers to a smart contract, it must implement {IERC721Receiver-onERC721Received}, which is called upon a safe transfer.\n     *\n     * Emits a {Transfer} event.\n     */\n    function _safeMint(address to, string memory tokenId) internal virtual {\n        _safeMint(to, tokenId);\n    }\n\n    /**\n     * @dev Same as {xref-ERC721-_safeMint-address-uint256-}[`_safeMint`], with an additional `data` parameter which is\n     * forwarded in {IERC721Receiver-onERC721Received} to contract recipients.\n     */\n\n    /**\n     * @dev Mints `tokenId` and transfers it to `to`.\n     *\n     * WARNING: Usage of this method is discouraged, use {_safeMint} whenever possible\n     *\n     * Requirements:\n     *\n     * - `tokenId` must not exist.\n     * - `to` cannot be the zero address.\n     *\n     * Emits a {Transfer} event.\n     */\n    function mint(address to, string memory tokenId) public {\n        require(to != address(0), \"ERC721: mint to the zero address\");\n        require(!_exists(tokenId), \"ERC721: token already minted\");\n\n        _beforeTokenTransfer(address(0), to, tokenId);\n\n        _balances[to] += 1;\n        _owners[tokenId] = to;\n        Tokens.push(tokenId);\n\n        emit Transfer(address(0), to, tokenId);\n    }\n\n    function getAllTokens() public view returns (string[] memory tokens) {\n        return Tokens;\n    }\n\n    function getLengthArrayTokens() public view returns (uint256 length) {\n        return Tokens.length;\n    }\n\n    /**\n     * @dev Destroys `tokenId`.\n     * The approval is cleared when the token is burned.\n     *\n     * Requirements:\n     *\n     * - `tokenId` must exist.\n     *\n     * Emits a {Transfer} event.\n     */\n    function _burn(string memory tokenId) internal virtual {\n        address owner = ERC721.ownerOf(tokenId);\n\n        _beforeTokenTransfer(owner, address(0), tokenId);\n\n        // Clear approvals\n        _approve(address(0), tokenId);\n\n        _balances[owner] -= 1;\n        delete _owners[tokenId];\n\n        emit Transfer(owner, address(0), tokenId);\n    }\n\n    /**\n     * @dev Transfers `tokenId` from `from` to `to`.\n     *  As opposed to {transferFrom}, this imposes no restrictions on msg.sender.\n     *\n     * Requirements:\n     *\n     * - `to` cannot be the zero address.\n     * - `tokenId` token must be owned by `from`.\n     *\n     * Emits a {Transfer} event.\n     */\n    function _transfer(\n        address from,\n        address to,\n        string memory tokenId\n    ) internal virtual {\n        require(\n            ERC721.ownerOf(tokenId) == from,\n            \"ERC721: transfer of token that is not own\"\n        );\n        require(to != address(0), \"ERC721: transfer to the zero address\");\n\n        _beforeTokenTransfer(from, to, tokenId);\n\n        // Clear approvals from the previous owner\n        _approve(address(0), tokenId);\n\n        _balances[from] -= 1;\n        _balances[to] += 1;\n        _owners[tokenId] = to;\n\n        emit Transfer(from, to, tokenId);\n    }\n\n    /**\n     * @dev Approve `to` to operate on `tokenId`\n     *\n     * Emits a {Approval} event.\n     */\n    function _approve(address to, string memory tokenId) internal virtual {\n        _tokenApprovals[tokenId] = to;\n        emit Approval(ERC721.ownerOf(tokenId), to, tokenId);\n    }\n\n    function _checkOnERC721Received(\n        address from,\n        address to,\n        string memory tokenId\n    ) private returns (bool) {\n        if (to.isContract()) {\n            try\n                IERC721Receiver(to).onERC721Received(\n                    _msgSender(),\n                    from,\n                    tokenId\n                )\n            returns (bytes4 retval) {\n                return retval == IERC721Receiver(to).onERC721Received.selector;\n            } catch (bytes memory reason) {\n                if (reason.length == 0) {\n                    revert(\n                        \"ERC721: transfer to non ERC721Receiver implementer\"\n                    );\n                } else {\n                    assembly {\n                        revert(add(32, reason), mload(reason))\n                    }\n                }\n            }\n        } else {\n            return true;\n        }\n    }\n\n    /**\n     * @dev Hook that is called before any token transfer. This includes minting\n     * and burning.\n     *\n     * Calling conditions:\n     *\n     * - When `from` and `to` are both non-zero, ``from``'s `tokenId` will be\n     * transferred to `to`.\n     * - When `from` is zero, `tokenId` will be minted for `to`.\n     * - When `to` is zero, ``from``'s `tokenId` will be burned.\n     * - `from` and `to` are never both zero.\n     *\n     * To learn more about hooks, head to xref:ROOT:extending-contracts.adoc#using-hooks[Using Hooks].\n     */\n    function _beforeTokenTransfer(\n        address from,\n        address to,\n        string memory tokenId\n    ) internal virtual {}\n}\n",
  "sourcePath": "/Users/mpfa/dev/nft/contracts/ERC721.sol",
  "compiler": {
    "name": "solc",
    "version": "0.8.0+commit.c7dfd78e.Emscripten.clang"
  },
  "schemaVersion": "3.4.1",
  "updatedAt": "2021-07-13T21:36:16.438Z",
  "networkType": "ethereum",
  "devdoc": {
    "details": "Implementation of https://eips.ethereum.org/EIPS/eip-721[ERC721] Non-Fungible Token Standard, including the Metadata extension, but not including the Enumerable extension, which is available separately as {ERC721Enumerable}.",
    "kind": "dev",
    "methods": {
      "approve(address,string)": {
        "details": "See {IERC721-approve}."
      },
      "balanceOf(address)": {
        "details": "See {IERC721-balanceOf}."
      },
      "constructor": {
        "details": "Initializes the contract by setting a `name` and a `symbol` to the token collection."
      },
      "getApproved(string)": {
        "details": "See {IERC721-getApproved}."
      },
      "isApprovedForAll(address,address)": {
        "details": "See {IERC721-isApprovedForAll}."
      },
      "mint(address,string)": {
        "details": "Mints `tokenId` and transfers it to `to`. WARNING: Usage of this method is discouraged, use {_safeMint} whenever possible Requirements: - `tokenId` must not exist. - `to` cannot be the zero address. Emits a {Transfer} event."
      },
      "name()": {
        "details": "See {IERC721Metadata-name}."
      },
      "ownerOf(string)": {
        "details": "See {IERC721-ownerOf}."
      },
      "safeTransferFrom(address,address,string)": {
        "details": "See {IERC721-safeTransferFrom}."
      },
      "setApprovalForAll(address,bool)": {
        "details": "See {IERC721-setApprovalForAll}."
      },
      "symbol()": {
        "details": "See {IERC721Metadata-symbol}."
      },
      "tokenURI(string)": {
        "details": "See {IERC721Metadata-tokenURI}."
      },
      "transferFrom(address,address,string)": {
        "details": "See {IERC721-transferFrom}."
      }
    },
    "version": 1
  },
  "userdoc": {
    "kind": "user",
    "methods": {},
    "version": 1
  }
}